{
	"SimpleStorage.sol": {
		"SimpleStorage": {
			"abi": [
				{
					"inputs": [
						{
							"internalType": "string",
							"name": "_name",
							"type": "string"
						},
						{
							"internalType": "uint256",
							"name": "_favoriteNumber",
							"type": "uint256"
						}
					],
					"name": "addPeople",
					"outputs": [],
					"stateMutability": "nonpayable",
					"type": "function"
				},
				{
					"inputs": [
						{
							"internalType": "uint256",
							"name": "",
							"type": "uint256"
						}
					],
					"name": "listOfPeople",
					"outputs": [
						{
							"internalType": "uint256",
							"name": "favoriteNumber",
							"type": "uint256"
						},
						{
							"internalType": "string",
							"name": "name",
							"type": "string"
						}
					],
					"stateMutability": "view",
					"type": "function"
				},
				{
					"inputs": [
						{
							"internalType": "string",
							"name": "",
							"type": "string"
						}
					],
					"name": "nameToFavoriteNumber",
					"outputs": [
						{
							"internalType": "bool",
							"name": "",
							"type": "bool"
						}
					],
					"stateMutability": "view",
					"type": "function"
				},
				{
					"inputs": [],
					"name": "retrieve",
					"outputs": [
						{
							"internalType": "uint256",
							"name": "",
							"type": "uint256"
						}
					],
					"stateMutability": "view",
					"type": "function"
				},
				{
					"inputs": [
						{
							"internalType": "uint256",
							"name": "_favoriteNumber",
							"type": "uint256"
						}
					],
					"name": "store",
					"outputs": [],
					"stateMutability": "nonpayable",
					"type": "function"
				}
			],
			"devdoc": {
				"kind": "dev",
				"methods": {},
				"version": 1
			},
			"evm": {
				"assembly": "    /* \"SimpleStorage.sol\":61:782  contract SimpleStorage ... */\n  mstore(0x40, 0x80)\n  callvalue\n  dup1\n  iszero\n  tag_1\n  jumpi\n  0x00\n  dup1\n  revert\ntag_1:\n  pop\n  dataSize(sub_0)\n  dup1\n  dataOffset(sub_0)\n  0x00\n  codecopy\n  0x00\n  return\nstop\n\nsub_0: assembly {\n        /* \"SimpleStorage.sol\":61:782  contract SimpleStorage ... */\n      mstore(0x40, 0x80)\n      callvalue\n      dup1\n      iszero\n      tag_1\n      jumpi\n      0x00\n      dup1\n      revert\n    tag_1:\n      pop\n      jumpi(tag_2, lt(calldatasize, 0x04))\n      shr(0xe0, calldataload(0x00))\n      dup1\n      0x2e64cec1\n      eq\n      tag_3\n      jumpi\n      dup1\n      0x2ebce631\n      eq\n      tag_4\n      jumpi\n      dup1\n      0x6057361d\n      eq\n      tag_5\n      jumpi\n      dup1\n      0x795fff1d\n      eq\n      tag_6\n      jumpi\n      dup1\n      0x8bab8dd5\n      eq\n      tag_7\n      jumpi\n    tag_2:\n      0x00\n      dup1\n      revert\n        /* \"SimpleStorage.sol\":682:779  function retrieve() public view returns(uint256) ... */\n    tag_3:\n      tag_8\n      tag_9\n      jump\t// in\n    tag_8:\n      mload(0x40)\n      tag_10\n      swap2\n      swap1\n      tag_11\n      jump\t// in\n    tag_10:\n      mload(0x40)\n      dup1\n      swap2\n      sub\n      swap1\n      return\n        /* \"SimpleStorage.sol\":212:240  Person[] public listOfPeople */\n    tag_4:\n      tag_12\n      0x04\n      dup1\n      calldatasize\n      sub\n      dup2\n      add\n      swap1\n      tag_13\n      swap2\n      swap1\n      tag_14\n      jump\t// in\n    tag_13:\n      tag_15\n      jump\t// in\n    tag_12:\n      mload(0x40)\n      tag_16\n      swap3\n      swap2\n      swap1\n      tag_17\n      jump\t// in\n    tag_16:\n      mload(0x40)\n      dup1\n      swap2\n      sub\n      swap1\n      return\n        /* \"SimpleStorage.sol\":561:674  function store(uint256 _favoriteNumber) public virtual... */\n    tag_5:\n      tag_18\n      0x04\n      dup1\n      calldatasize\n      sub\n      dup2\n      add\n      swap1\n      tag_19\n      swap2\n      swap1\n      tag_14\n      jump\t// in\n    tag_19:\n      tag_20\n      jump\t// in\n    tag_18:\n      stop\n        /* \"SimpleStorage.sol\":309:553  function addPeople(string memory _name, uint256 _favoriteNumber) public ... */\n    tag_6:\n      tag_21\n      0x04\n      dup1\n      calldatasize\n      sub\n      dup2\n      add\n      swap1\n      tag_22\n      swap2\n      swap1\n      tag_23\n      jump\t// in\n    tag_22:\n      tag_24\n      jump\t// in\n    tag_21:\n      stop\n        /* \"SimpleStorage.sol\":249:300  mapping(string => bool) public nameToFavoriteNumber */\n    tag_7:\n      tag_25\n      0x04\n      dup1\n      calldatasize\n      sub\n      dup2\n      add\n      swap1\n      tag_26\n      swap2\n      swap1\n      tag_27\n      jump\t// in\n    tag_26:\n      tag_28\n      jump\t// in\n    tag_25:\n      mload(0x40)\n      tag_29\n      swap2\n      swap1\n      tag_30\n      jump\t// in\n    tag_29:\n      mload(0x40)\n      dup1\n      swap2\n      sub\n      swap1\n      return\n        /* \"SimpleStorage.sol\":682:779  function retrieve() public view returns(uint256) ... */\n    tag_9:\n        /* \"SimpleStorage.sol\":722:729  uint256 */\n      0x00\n        /* \"SimpleStorage.sol\":755:771  myFavoriteNumber */\n      dup1\n      sload\n        /* \"SimpleStorage.sol\":748:771  return myFavoriteNumber */\n      swap1\n      pop\n        /* \"SimpleStorage.sol\":682:779  function retrieve() public view returns(uint256) ... */\n      swap1\n      jump\t// out\n        /* \"SimpleStorage.sol\":212:240  Person[] public listOfPeople */\n    tag_15:\n      0x01\n      dup2\n      dup2\n      sload\n      dup2\n      lt\n      tag_32\n      jumpi\n      0x00\n      dup1\n      revert\n    tag_32:\n      swap1\n      0x00\n      mstore\n      keccak256(0x00, 0x20)\n      swap1\n      0x02\n      mul\n      add\n      0x00\n      swap2\n      pop\n      swap1\n      pop\n      dup1\n      0x00\n      add\n      sload\n      swap1\n      dup1\n      0x01\n      add\n      dup1\n      sload\n      tag_34\n      swap1\n      tag_35\n      jump\t// in\n    tag_34:\n      dup1\n      0x1f\n      add\n      0x20\n      dup1\n      swap2\n      div\n      mul\n      0x20\n      add\n      mload(0x40)\n      swap1\n      dup2\n      add\n      0x40\n      mstore\n      dup1\n      swap3\n      swap2\n      swap1\n      dup2\n      dup2\n      mstore\n      0x20\n      add\n      dup3\n      dup1\n      sload\n      tag_36\n      swap1\n      tag_35\n      jump\t// in\n    tag_36:\n      dup1\n      iszero\n      tag_37\n      jumpi\n      dup1\n      0x1f\n      lt\n      tag_38\n      jumpi\n      0x0100\n      dup1\n      dup4\n      sload\n      div\n      mul\n      dup4\n      mstore\n      swap2\n      0x20\n      add\n      swap2\n      jump(tag_37)\n    tag_38:\n      dup3\n      add\n      swap2\n      swap1\n      0x00\n      mstore\n      keccak256(0x00, 0x20)\n      swap1\n    tag_39:\n      dup2\n      sload\n      dup2\n      mstore\n      swap1\n      0x01\n      add\n      swap1\n      0x20\n      add\n      dup1\n      dup4\n      gt\n      tag_39\n      jumpi\n      dup3\n      swap1\n      sub\n      0x1f\n      and\n      dup3\n      add\n      swap2\n    tag_37:\n      pop\n      pop\n      pop\n      pop\n      pop\n      swap1\n      pop\n      dup3\n      jump\t// out\n        /* \"SimpleStorage.sol\":561:674  function store(uint256 _favoriteNumber) public virtual... */\n    tag_20:\n        /* \"SimpleStorage.sol\":651:666  _favoriteNumber */\n      dup1\n        /* \"SimpleStorage.sol\":632:648  myFavoriteNumber */\n      0x00\n        /* \"SimpleStorage.sol\":632:666  myFavoriteNumber = _favoriteNumber */\n      dup2\n      swap1\n      sstore\n      pop\n        /* \"SimpleStorage.sol\":561:674  function store(uint256 _favoriteNumber) public virtual... */\n      pop\n      jump\t// out\n        /* \"SimpleStorage.sol\":309:553  function addPeople(string memory _name, uint256 _favoriteNumber) public ... */\n    tag_24:\n        /* \"SimpleStorage.sol\":398:410  listOfPeople */\n      0x01\n        /* \"SimpleStorage.sol\":440:534  Person... */\n      mload(0x40)\n      dup1\n      0x40\n      add\n      0x40\n      mstore\n      dup1\n        /* \"SimpleStorage.sol\":479:494  _favoriteNumber */\n      dup4\n        /* \"SimpleStorage.sol\":440:534  Person... */\n      dup2\n      mstore\n      0x20\n      add\n        /* \"SimpleStorage.sol\":514:519  _name */\n      dup5\n        /* \"SimpleStorage.sol\":440:534  Person... */\n      dup2\n      mstore\n      pop\n        /* \"SimpleStorage.sol\":398:545  listOfPeople.push... */\n      swap1\n      dup1\n      0x01\n      dup2\n      sload\n      add\n      dup1\n      dup3\n      sstore\n      dup1\n      swap2\n      pop\n      pop\n      0x01\n      swap1\n      sub\n      swap1\n      0x00\n      mstore\n      keccak256(0x00, 0x20)\n      swap1\n      0x02\n      mul\n      add\n      0x00\n      swap1\n      swap2\n      swap1\n      swap2\n      swap1\n      swap2\n      pop\n      0x00\n      dup3\n      add\n      mload\n      dup2\n      0x00\n      add\n      sstore\n      0x20\n      dup3\n      add\n      mload\n      dup2\n      0x01\n      add\n      swap1\n      dup2\n      tag_43\n      swap2\n      swap1\n      tag_44\n      jump\t// in\n    tag_43:\n      pop\n      pop\n      pop\n        /* \"SimpleStorage.sol\":309:553  function addPeople(string memory _name, uint256 _favoriteNumber) public ... */\n      pop\n      pop\n      jump\t// out\n        /* \"SimpleStorage.sol\":249:300  mapping(string => bool) public nameToFavoriteNumber */\n    tag_28:\n      0x02\n      dup2\n      dup1\n      mload\n      0x20\n      dup2\n      add\n      dup3\n      add\n      dup1\n      mload\n      dup5\n      dup3\n      mstore\n      0x20\n      dup4\n      add\n      0x20\n      dup6\n      add\n      keccak256\n      dup2\n      dup4\n      mstore\n      dup1\n      swap6\n      pop\n      pop\n      pop\n      pop\n      pop\n      pop\n      0x00\n      swap2\n      pop\n      sload\n      swap1\n      0x0100\n      exp\n      swap1\n      div\n      0xff\n      and\n      dup2\n      jump\t// out\n        /* \"#utility.yul\":7:84   */\n    tag_45:\n        /* \"#utility.yul\":44:51   */\n      0x00\n        /* \"#utility.yul\":73:78   */\n      dup2\n        /* \"#utility.yul\":62:78   */\n      swap1\n      pop\n        /* \"#utility.yul\":7:84   */\n      swap2\n      swap1\n      pop\n      jump\t// out\n        /* \"#utility.yul\":90:208   */\n    tag_46:\n        /* \"#utility.yul\":177:201   */\n      tag_87\n        /* \"#utility.yul\":195:200   */\n      dup2\n        /* \"#utility.yul\":177:201   */\n      tag_45\n      jump\t// in\n    tag_87:\n        /* \"#utility.yul\":172:175   */\n      dup3\n        /* \"#utility.yul\":165:202   */\n      mstore\n        /* \"#utility.yul\":90:208   */\n      pop\n      pop\n      jump\t// out\n        /* \"#utility.yul\":214:436   */\n    tag_11:\n        /* \"#utility.yul\":307:311   */\n      0x00\n        /* \"#utility.yul\":345:347   */\n      0x20\n        /* \"#utility.yul\":334:343   */\n      dup3\n        /* \"#utility.yul\":330:348   */\n      add\n        /* \"#utility.yul\":322:348   */\n      swap1\n      pop\n        /* \"#utility.yul\":358:429   */\n      tag_89\n        /* \"#utility.yul\":426:427   */\n      0x00\n        /* \"#utility.yul\":415:424   */\n      dup4\n        /* \"#utility.yul\":411:428   */\n      add\n        /* \"#utility.yul\":402:408   */\n      dup5\n        /* \"#utility.yul\":358:429   */\n      tag_46\n      jump\t// in\n    tag_89:\n        /* \"#utility.yul\":214:436   */\n      swap3\n      swap2\n      pop\n      pop\n      jump\t// out\n        /* \"#utility.yul\":442:517   */\n    tag_47:\n        /* \"#utility.yul\":475:481   */\n      0x00\n        /* \"#utility.yul\":508:510   */\n      0x40\n        /* \"#utility.yul\":502:511   */\n      mload\n        /* \"#utility.yul\":492:511   */\n      swap1\n      pop\n        /* \"#utility.yul\":442:517   */\n      swap1\n      jump\t// out\n        /* \"#utility.yul\":523:640   */\n    tag_48:\n        /* \"#utility.yul\":632:633   */\n      0x00\n        /* \"#utility.yul\":629:630   */\n      dup1\n        /* \"#utility.yul\":622:634   */\n      revert\n        /* \"#utility.yul\":646:763   */\n    tag_49:\n        /* \"#utility.yul\":755:756   */\n      0x00\n        /* \"#utility.yul\":752:753   */\n      dup1\n        /* \"#utility.yul\":745:757   */\n      revert\n        /* \"#utility.yul\":769:891   */\n    tag_50:\n        /* \"#utility.yul\":842:866   */\n      tag_94\n        /* \"#utility.yul\":860:865   */\n      dup2\n        /* \"#utility.yul\":842:866   */\n      tag_45\n      jump\t// in\n    tag_94:\n        /* \"#utility.yul\":835:840   */\n      dup2\n        /* \"#utility.yul\":832:867   */\n      eq\n        /* \"#utility.yul\":822:885   */\n      tag_95\n      jumpi\n        /* \"#utility.yul\":881:882   */\n      0x00\n        /* \"#utility.yul\":878:879   */\n      dup1\n        /* \"#utility.yul\":871:883   */\n      revert\n        /* \"#utility.yul\":822:885   */\n    tag_95:\n        /* \"#utility.yul\":769:891   */\n      pop\n      jump\t// out\n        /* \"#utility.yul\":897:1036   */\n    tag_51:\n        /* \"#utility.yul\":943:948   */\n      0x00\n        /* \"#utility.yul\":981:987   */\n      dup2\n        /* \"#utility.yul\":968:988   */\n      calldataload\n        /* \"#utility.yul\":959:988   */\n      swap1\n      pop\n        /* \"#utility.yul\":997:1030   */\n      tag_97\n        /* \"#utility.yul\":1024:1029   */\n      dup2\n        /* \"#utility.yul\":997:1030   */\n      tag_50\n      jump\t// in\n    tag_97:\n        /* \"#utility.yul\":897:1036   */\n      swap3\n      swap2\n      pop\n      pop\n      jump\t// out\n        /* \"#utility.yul\":1042:1371   */\n    tag_14:\n        /* \"#utility.yul\":1101:1107   */\n      0x00\n        /* \"#utility.yul\":1150:1152   */\n      0x20\n        /* \"#utility.yul\":1138:1147   */\n      dup3\n        /* \"#utility.yul\":1129:1136   */\n      dup5\n        /* \"#utility.yul\":1125:1148   */\n      sub\n        /* \"#utility.yul\":1121:1153   */\n      slt\n        /* \"#utility.yul\":1118:1237   */\n      iszero\n      tag_99\n      jumpi\n        /* \"#utility.yul\":1156:1235   */\n      tag_100\n      tag_48\n      jump\t// in\n    tag_100:\n        /* \"#utility.yul\":1118:1237   */\n    tag_99:\n        /* \"#utility.yul\":1276:1277   */\n      0x00\n        /* \"#utility.yul\":1301:1354   */\n      tag_101\n        /* \"#utility.yul\":1346:1353   */\n      dup5\n        /* \"#utility.yul\":1337:1343   */\n      dup3\n        /* \"#utility.yul\":1326:1335   */\n      dup6\n        /* \"#utility.yul\":1322:1344   */\n      add\n        /* \"#utility.yul\":1301:1354   */\n      tag_51\n      jump\t// in\n    tag_101:\n        /* \"#utility.yul\":1291:1354   */\n      swap2\n      pop\n        /* \"#utility.yul\":1247:1364   */\n      pop\n        /* \"#utility.yul\":1042:1371   */\n      swap3\n      swap2\n      pop\n      pop\n      jump\t// out\n        /* \"#utility.yul\":1377:1476   */\n    tag_52:\n        /* \"#utility.yul\":1429:1435   */\n      0x00\n        /* \"#utility.yul\":1463:1468   */\n      dup2\n        /* \"#utility.yul\":1457:1469   */\n      mload\n        /* \"#utility.yul\":1447:1469   */\n      swap1\n      pop\n        /* \"#utility.yul\":1377:1476   */\n      swap2\n      swap1\n      pop\n      jump\t// out\n        /* \"#utility.yul\":1482:1651   */\n    tag_53:\n        /* \"#utility.yul\":1566:1577   */\n      0x00\n        /* \"#utility.yul\":1600:1606   */\n      dup3\n        /* \"#utility.yul\":1595:1598   */\n      dup3\n        /* \"#utility.yul\":1588:1607   */\n      mstore\n        /* \"#utility.yul\":1640:1644   */\n      0x20\n        /* \"#utility.yul\":1635:1638   */\n      dup3\n        /* \"#utility.yul\":1631:1645   */\n      add\n        /* \"#utility.yul\":1616:1645   */\n      swap1\n      pop\n        /* \"#utility.yul\":1482:1651   */\n      swap3\n      swap2\n      pop\n      pop\n      jump\t// out\n        /* \"#utility.yul\":1657:1796   */\n    tag_54:\n        /* \"#utility.yul\":1746:1752   */\n      dup3\n        /* \"#utility.yul\":1741:1744   */\n      dup2\n        /* \"#utility.yul\":1736:1739   */\n      dup4\n        /* \"#utility.yul\":1730:1753   */\n      mcopy\n        /* \"#utility.yul\":1787:1788   */\n      0x00\n        /* \"#utility.yul\":1778:1784   */\n      dup4\n        /* \"#utility.yul\":1773:1776   */\n      dup4\n        /* \"#utility.yul\":1769:1785   */\n      add\n        /* \"#utility.yul\":1762:1789   */\n      mstore\n        /* \"#utility.yul\":1657:1796   */\n      pop\n      pop\n      pop\n      jump\t// out\n        /* \"#utility.yul\":1802:1904   */\n    tag_55:\n        /* \"#utility.yul\":1843:1849   */\n      0x00\n        /* \"#utility.yul\":1894:1896   */\n      0x1f\n        /* \"#utility.yul\":1890:1897   */\n      not\n        /* \"#utility.yul\":1885:1887   */\n      0x1f\n        /* \"#utility.yul\":1878:1883   */\n      dup4\n        /* \"#utility.yul\":1874:1888   */\n      add\n        /* \"#utility.yul\":1870:1898   */\n      and\n        /* \"#utility.yul\":1860:1898   */\n      swap1\n      pop\n        /* \"#utility.yul\":1802:1904   */\n      swap2\n      swap1\n      pop\n      jump\t// out\n        /* \"#utility.yul\":1910:2287   */\n    tag_56:\n        /* \"#utility.yul\":1998:2001   */\n      0x00\n        /* \"#utility.yul\":2026:2065   */\n      tag_107\n        /* \"#utility.yul\":2059:2064   */\n      dup3\n        /* \"#utility.yul\":2026:2065   */\n      tag_52\n      jump\t// in\n    tag_107:\n        /* \"#utility.yul\":2081:2152   */\n      tag_108\n        /* \"#utility.yul\":2145:2151   */\n      dup2\n        /* \"#utility.yul\":2140:2143   */\n      dup6\n        /* \"#utility.yul\":2081:2152   */\n      tag_53\n      jump\t// in\n    tag_108:\n        /* \"#utility.yul\":2074:2152   */\n      swap4\n      pop\n        /* \"#utility.yul\":2161:2226   */\n      tag_109\n        /* \"#utility.yul\":2219:2225   */\n      dup2\n        /* \"#utility.yul\":2214:2217   */\n      dup6\n        /* \"#utility.yul\":2207:2211   */\n      0x20\n        /* \"#utility.yul\":2200:2205   */\n      dup7\n        /* \"#utility.yul\":2196:2212   */\n      add\n        /* \"#utility.yul\":2161:2226   */\n      tag_54\n      jump\t// in\n    tag_109:\n        /* \"#utility.yul\":2251:2280   */\n      tag_110\n        /* \"#utility.yul\":2273:2279   */\n      dup2\n        /* \"#utility.yul\":2251:2280   */\n      tag_55\n      jump\t// in\n    tag_110:\n        /* \"#utility.yul\":2246:2249   */\n      dup5\n        /* \"#utility.yul\":2242:2281   */\n      add\n        /* \"#utility.yul\":2235:2281   */\n      swap2\n      pop\n        /* \"#utility.yul\":2002:2287   */\n      pop\n        /* \"#utility.yul\":1910:2287   */\n      swap3\n      swap2\n      pop\n      pop\n      jump\t// out\n        /* \"#utility.yul\":2293:2716   */\n    tag_17:\n        /* \"#utility.yul\":2434:2438   */\n      0x00\n        /* \"#utility.yul\":2472:2474   */\n      0x40\n        /* \"#utility.yul\":2461:2470   */\n      dup3\n        /* \"#utility.yul\":2457:2475   */\n      add\n        /* \"#utility.yul\":2449:2475   */\n      swap1\n      pop\n        /* \"#utility.yul\":2485:2556   */\n      tag_112\n        /* \"#utility.yul\":2553:2554   */\n      0x00\n        /* \"#utility.yul\":2542:2551   */\n      dup4\n        /* \"#utility.yul\":2538:2555   */\n      add\n        /* \"#utility.yul\":2529:2535   */\n      dup6\n        /* \"#utility.yul\":2485:2556   */\n      tag_46\n      jump\t// in\n    tag_112:\n        /* \"#utility.yul\":2603:2612   */\n      dup2\n        /* \"#utility.yul\":2597:2601   */\n      dup2\n        /* \"#utility.yul\":2593:2613   */\n      sub\n        /* \"#utility.yul\":2588:2590   */\n      0x20\n        /* \"#utility.yul\":2577:2586   */\n      dup4\n        /* \"#utility.yul\":2573:2591   */\n      add\n        /* \"#utility.yul\":2566:2614   */\n      mstore\n        /* \"#utility.yul\":2631:2709   */\n      tag_113\n        /* \"#utility.yul\":2704:2708   */\n      dup2\n        /* \"#utility.yul\":2695:2701   */\n      dup5\n        /* \"#utility.yul\":2631:2709   */\n      tag_56\n      jump\t// in\n    tag_113:\n        /* \"#utility.yul\":2623:2709   */\n      swap1\n      pop\n        /* \"#utility.yul\":2293:2716   */\n      swap4\n      swap3\n      pop\n      pop\n      pop\n      jump\t// out\n        /* \"#utility.yul\":2722:2839   */\n    tag_57:\n        /* \"#utility.yul\":2831:2832   */\n      0x00\n        /* \"#utility.yul\":2828:2829   */\n      dup1\n        /* \"#utility.yul\":2821:2833   */\n      revert\n        /* \"#utility.yul\":2845:2962   */\n    tag_58:\n        /* \"#utility.yul\":2954:2955   */\n      0x00\n        /* \"#utility.yul\":2951:2952   */\n      dup1\n        /* \"#utility.yul\":2944:2956   */\n      revert\n        /* \"#utility.yul\":2968:3148   */\n    tag_59:\n        /* \"#utility.yul\":3016:3093   */\n      0x4e487b7100000000000000000000000000000000000000000000000000000000\n        /* \"#utility.yul\":3013:3014   */\n      0x00\n        /* \"#utility.yul\":3006:3094   */\n      mstore\n        /* \"#utility.yul\":3113:3117   */\n      0x41\n        /* \"#utility.yul\":3110:3111   */\n      0x04\n        /* \"#utility.yul\":3103:3118   */\n      mstore\n        /* \"#utility.yul\":3137:3141   */\n      0x24\n        /* \"#utility.yul\":3134:3135   */\n      0x00\n        /* \"#utility.yul\":3127:3142   */\n      revert\n        /* \"#utility.yul\":3154:3435   */\n    tag_60:\n        /* \"#utility.yul\":3237:3264   */\n      tag_118\n        /* \"#utility.yul\":3259:3263   */\n      dup3\n        /* \"#utility.yul\":3237:3264   */\n      tag_55\n      jump\t// in\n    tag_118:\n        /* \"#utility.yul\":3229:3235   */\n      dup2\n        /* \"#utility.yul\":3225:3265   */\n      add\n        /* \"#utility.yul\":3367:3373   */\n      dup2\n        /* \"#utility.yul\":3355:3365   */\n      dup2\n        /* \"#utility.yul\":3352:3374   */\n      lt\n        /* \"#utility.yul\":3331:3349   */\n      0xffffffffffffffff\n        /* \"#utility.yul\":3319:3329   */\n      dup3\n        /* \"#utility.yul\":3316:3350   */\n      gt\n        /* \"#utility.yul\":3313:3375   */\n      or\n        /* \"#utility.yul\":3310:3398   */\n      iszero\n      tag_119\n      jumpi\n        /* \"#utility.yul\":3378:3396   */\n      tag_120\n      tag_59\n      jump\t// in\n    tag_120:\n        /* \"#utility.yul\":3310:3398   */\n    tag_119:\n        /* \"#utility.yul\":3418:3428   */\n      dup1\n        /* \"#utility.yul\":3414:3416   */\n      0x40\n        /* \"#utility.yul\":3407:3429   */\n      mstore\n        /* \"#utility.yul\":3197:3435   */\n      pop\n        /* \"#utility.yul\":3154:3435   */\n      pop\n      pop\n      jump\t// out\n        /* \"#utility.yul\":3441:3570   */\n    tag_61:\n        /* \"#utility.yul\":3475:3481   */\n      0x00\n        /* \"#utility.yul\":3502:3522   */\n      tag_122\n      tag_47\n      jump\t// in\n    tag_122:\n        /* \"#utility.yul\":3492:3522   */\n      swap1\n      pop\n        /* \"#utility.yul\":3531:3564   */\n      tag_123\n        /* \"#utility.yul\":3559:3563   */\n      dup3\n        /* \"#utility.yul\":3551:3557   */\n      dup3\n        /* \"#utility.yul\":3531:3564   */\n      tag_60\n      jump\t// in\n    tag_123:\n        /* \"#utility.yul\":3441:3570   */\n      swap2\n      swap1\n      pop\n      jump\t// out\n        /* \"#utility.yul\":3576:3884   */\n    tag_62:\n        /* \"#utility.yul\":3638:3642   */\n      0x00\n        /* \"#utility.yul\":3728:3746   */\n      0xffffffffffffffff\n        /* \"#utility.yul\":3720:3726   */\n      dup3\n        /* \"#utility.yul\":3717:3747   */\n      gt\n        /* \"#utility.yul\":3714:3770   */\n      iszero\n      tag_125\n      jumpi\n        /* \"#utility.yul\":3750:3768   */\n      tag_126\n      tag_59\n      jump\t// in\n    tag_126:\n        /* \"#utility.yul\":3714:3770   */\n    tag_125:\n        /* \"#utility.yul\":3788:3817   */\n      tag_127\n        /* \"#utility.yul\":3810:3816   */\n      dup3\n        /* \"#utility.yul\":3788:3817   */\n      tag_55\n      jump\t// in\n    tag_127:\n        /* \"#utility.yul\":3780:3817   */\n      swap1\n      pop\n        /* \"#utility.yul\":3872:3876   */\n      0x20\n        /* \"#utility.yul\":3866:3870   */\n      dup2\n        /* \"#utility.yul\":3862:3877   */\n      add\n        /* \"#utility.yul\":3854:3877   */\n      swap1\n      pop\n        /* \"#utility.yul\":3576:3884   */\n      swap2\n      swap1\n      pop\n      jump\t// out\n        /* \"#utility.yul\":3890:4038   */\n    tag_63:\n        /* \"#utility.yul\":3988:3994   */\n      dup3\n        /* \"#utility.yul\":3983:3986   */\n      dup2\n        /* \"#utility.yul\":3978:3981   */\n      dup4\n        /* \"#utility.yul\":3965:3995   */\n      calldatacopy\n        /* \"#utility.yul\":4029:4030   */\n      0x00\n        /* \"#utility.yul\":4020:4026   */\n      dup4\n        /* \"#utility.yul\":4015:4018   */\n      dup4\n        /* \"#utility.yul\":4011:4027   */\n      add\n        /* \"#utility.yul\":4004:4031   */\n      mstore\n        /* \"#utility.yul\":3890:4038   */\n      pop\n      pop\n      pop\n      jump\t// out\n        /* \"#utility.yul\":4044:4469   */\n    tag_64:\n        /* \"#utility.yul\":4122:4127   */\n      0x00\n        /* \"#utility.yul\":4147:4213   */\n      tag_130\n        /* \"#utility.yul\":4163:4212   */\n      tag_131\n        /* \"#utility.yul\":4205:4211   */\n      dup5\n        /* \"#utility.yul\":4163:4212   */\n      tag_62\n      jump\t// in\n    tag_131:\n        /* \"#utility.yul\":4147:4213   */\n      tag_61\n      jump\t// in\n    tag_130:\n        /* \"#utility.yul\":4138:4213   */\n      swap1\n      pop\n        /* \"#utility.yul\":4236:4242   */\n      dup3\n        /* \"#utility.yul\":4229:4234   */\n      dup2\n        /* \"#utility.yul\":4222:4243   */\n      mstore\n        /* \"#utility.yul\":4274:4278   */\n      0x20\n        /* \"#utility.yul\":4267:4272   */\n      dup2\n        /* \"#utility.yul\":4263:4279   */\n      add\n        /* \"#utility.yul\":4312:4315   */\n      dup5\n        /* \"#utility.yul\":4303:4309   */\n      dup5\n        /* \"#utility.yul\":4298:4301   */\n      dup5\n        /* \"#utility.yul\":4294:4310   */\n      add\n        /* \"#utility.yul\":4291:4316   */\n      gt\n        /* \"#utility.yul\":4288:4400   */\n      iszero\n      tag_132\n      jumpi\n        /* \"#utility.yul\":4319:4398   */\n      tag_133\n      tag_58\n      jump\t// in\n    tag_133:\n        /* \"#utility.yul\":4288:4400   */\n    tag_132:\n        /* \"#utility.yul\":4409:4463   */\n      tag_134\n        /* \"#utility.yul\":4456:4462   */\n      dup5\n        /* \"#utility.yul\":4451:4454   */\n      dup3\n        /* \"#utility.yul\":4446:4449   */\n      dup6\n        /* \"#utility.yul\":4409:4463   */\n      tag_63\n      jump\t// in\n    tag_134:\n        /* \"#utility.yul\":4128:4469   */\n      pop\n        /* \"#utility.yul\":4044:4469   */\n      swap4\n      swap3\n      pop\n      pop\n      pop\n      jump\t// out\n        /* \"#utility.yul\":4489:4829   */\n    tag_65:\n        /* \"#utility.yul\":4545:4550   */\n      0x00\n        /* \"#utility.yul\":4594:4597   */\n      dup3\n        /* \"#utility.yul\":4587:4591   */\n      0x1f\n        /* \"#utility.yul\":4579:4585   */\n      dup4\n        /* \"#utility.yul\":4575:4592   */\n      add\n        /* \"#utility.yul\":4571:4598   */\n      slt\n        /* \"#utility.yul\":4561:4683   */\n      tag_136\n      jumpi\n        /* \"#utility.yul\":4602:4681   */\n      tag_137\n      tag_57\n      jump\t// in\n    tag_137:\n        /* \"#utility.yul\":4561:4683   */\n    tag_136:\n        /* \"#utility.yul\":4719:4725   */\n      dup2\n        /* \"#utility.yul\":4706:4726   */\n      calldataload\n        /* \"#utility.yul\":4744:4823   */\n      tag_138\n        /* \"#utility.yul\":4819:4822   */\n      dup5\n        /* \"#utility.yul\":4811:4817   */\n      dup3\n        /* \"#utility.yul\":4804:4808   */\n      0x20\n        /* \"#utility.yul\":4796:4802   */\n      dup7\n        /* \"#utility.yul\":4792:4809   */\n      add\n        /* \"#utility.yul\":4744:4823   */\n      tag_64\n      jump\t// in\n    tag_138:\n        /* \"#utility.yul\":4735:4823   */\n      swap2\n      pop\n        /* \"#utility.yul\":4551:4829   */\n      pop\n        /* \"#utility.yul\":4489:4829   */\n      swap3\n      swap2\n      pop\n      pop\n      jump\t// out\n        /* \"#utility.yul\":4835:5489   */\n    tag_23:\n        /* \"#utility.yul\":4913:4919   */\n      0x00\n        /* \"#utility.yul\":4921:4927   */\n      dup1\n        /* \"#utility.yul\":4970:4972   */\n      0x40\n        /* \"#utility.yul\":4958:4967   */\n      dup4\n        /* \"#utility.yul\":4949:4956   */\n      dup6\n        /* \"#utility.yul\":4945:4968   */\n      sub\n        /* \"#utility.yul\":4941:4973   */\n      slt\n        /* \"#utility.yul\":4938:5057   */\n      iszero\n      tag_140\n      jumpi\n        /* \"#utility.yul\":4976:5055   */\n      tag_141\n      tag_48\n      jump\t// in\n    tag_141:\n        /* \"#utility.yul\":4938:5057   */\n    tag_140:\n        /* \"#utility.yul\":5124:5125   */\n      0x00\n        /* \"#utility.yul\":5113:5122   */\n      dup4\n        /* \"#utility.yul\":5109:5126   */\n      add\n        /* \"#utility.yul\":5096:5127   */\n      calldataload\n        /* \"#utility.yul\":5154:5172   */\n      0xffffffffffffffff\n        /* \"#utility.yul\":5146:5152   */\n      dup2\n        /* \"#utility.yul\":5143:5173   */\n      gt\n        /* \"#utility.yul\":5140:5257   */\n      iszero\n      tag_142\n      jumpi\n        /* \"#utility.yul\":5176:5255   */\n      tag_143\n      tag_49\n      jump\t// in\n    tag_143:\n        /* \"#utility.yul\":5140:5257   */\n    tag_142:\n        /* \"#utility.yul\":5281:5344   */\n      tag_144\n        /* \"#utility.yul\":5336:5343   */\n      dup6\n        /* \"#utility.yul\":5327:5333   */\n      dup3\n        /* \"#utility.yul\":5316:5325   */\n      dup7\n        /* \"#utility.yul\":5312:5334   */\n      add\n        /* \"#utility.yul\":5281:5344   */\n      tag_65\n      jump\t// in\n    tag_144:\n        /* \"#utility.yul\":5271:5344   */\n      swap3\n      pop\n        /* \"#utility.yul\":5067:5354   */\n      pop\n        /* \"#utility.yul\":5393:5395   */\n      0x20\n        /* \"#utility.yul\":5419:5472   */\n      tag_145\n        /* \"#utility.yul\":5464:5471   */\n      dup6\n        /* \"#utility.yul\":5455:5461   */\n      dup3\n        /* \"#utility.yul\":5444:5453   */\n      dup7\n        /* \"#utility.yul\":5440:5462   */\n      add\n        /* \"#utility.yul\":5419:5472   */\n      tag_51\n      jump\t// in\n    tag_145:\n        /* \"#utility.yul\":5409:5472   */\n      swap2\n      pop\n        /* \"#utility.yul\":5364:5482   */\n      pop\n        /* \"#utility.yul\":4835:5489   */\n      swap3\n      pop\n      swap3\n      swap1\n      pop\n      jump\t// out\n        /* \"#utility.yul\":5495:6004   */\n    tag_27:\n        /* \"#utility.yul\":5564:5570   */\n      0x00\n        /* \"#utility.yul\":5613:5615   */\n      0x20\n        /* \"#utility.yul\":5601:5610   */\n      dup3\n        /* \"#utility.yul\":5592:5599   */\n      dup5\n        /* \"#utility.yul\":5588:5611   */\n      sub\n        /* \"#utility.yul\":5584:5616   */\n      slt\n        /* \"#utility.yul\":5581:5700   */\n      iszero\n      tag_147\n      jumpi\n        /* \"#utility.yul\":5619:5698   */\n      tag_148\n      tag_48\n      jump\t// in\n    tag_148:\n        /* \"#utility.yul\":5581:5700   */\n    tag_147:\n        /* \"#utility.yul\":5767:5768   */\n      0x00\n        /* \"#utility.yul\":5756:5765   */\n      dup3\n        /* \"#utility.yul\":5752:5769   */\n      add\n        /* \"#utility.yul\":5739:5770   */\n      calldataload\n        /* \"#utility.yul\":5797:5815   */\n      0xffffffffffffffff\n        /* \"#utility.yul\":5789:5795   */\n      dup2\n        /* \"#utility.yul\":5786:5816   */\n      gt\n        /* \"#utility.yul\":5783:5900   */\n      iszero\n      tag_149\n      jumpi\n        /* \"#utility.yul\":5819:5898   */\n      tag_150\n      tag_49\n      jump\t// in\n    tag_150:\n        /* \"#utility.yul\":5783:5900   */\n    tag_149:\n        /* \"#utility.yul\":5924:5987   */\n      tag_151\n        /* \"#utility.yul\":5979:5986   */\n      dup5\n        /* \"#utility.yul\":5970:5976   */\n      dup3\n        /* \"#utility.yul\":5959:5968   */\n      dup6\n        /* \"#utility.yul\":5955:5977   */\n      add\n        /* \"#utility.yul\":5924:5987   */\n      tag_65\n      jump\t// in\n    tag_151:\n        /* \"#utility.yul\":5914:5987   */\n      swap2\n      pop\n        /* \"#utility.yul\":5710:5997   */\n      pop\n        /* \"#utility.yul\":5495:6004   */\n      swap3\n      swap2\n      pop\n      pop\n      jump\t// out\n        /* \"#utility.yul\":6010:6100   */\n    tag_66:\n        /* \"#utility.yul\":6044:6051   */\n      0x00\n        /* \"#utility.yul\":6087:6092   */\n      dup2\n        /* \"#utility.yul\":6080:6093   */\n      iszero\n        /* \"#utility.yul\":6073:6094   */\n      iszero\n        /* \"#utility.yul\":6062:6094   */\n      swap1\n      pop\n        /* \"#utility.yul\":6010:6100   */\n      swap2\n      swap1\n      pop\n      jump\t// out\n        /* \"#utility.yul\":6106:6215   */\n    tag_67:\n        /* \"#utility.yul\":6187:6208   */\n      tag_154\n        /* \"#utility.yul\":6202:6207   */\n      dup2\n        /* \"#utility.yul\":6187:6208   */\n      tag_66\n      jump\t// in\n    tag_154:\n        /* \"#utility.yul\":6182:6185   */\n      dup3\n        /* \"#utility.yul\":6175:6209   */\n      mstore\n        /* \"#utility.yul\":6106:6215   */\n      pop\n      pop\n      jump\t// out\n        /* \"#utility.yul\":6221:6431   */\n    tag_30:\n        /* \"#utility.yul\":6308:6312   */\n      0x00\n        /* \"#utility.yul\":6346:6348   */\n      0x20\n        /* \"#utility.yul\":6335:6344   */\n      dup3\n        /* \"#utility.yul\":6331:6349   */\n      add\n        /* \"#utility.yul\":6323:6349   */\n      swap1\n      pop\n        /* \"#utility.yul\":6359:6424   */\n      tag_156\n        /* \"#utility.yul\":6421:6422   */\n      0x00\n        /* \"#utility.yul\":6410:6419   */\n      dup4\n        /* \"#utility.yul\":6406:6423   */\n      add\n        /* \"#utility.yul\":6397:6403   */\n      dup5\n        /* \"#utility.yul\":6359:6424   */\n      tag_67\n      jump\t// in\n    tag_156:\n        /* \"#utility.yul\":6221:6431   */\n      swap3\n      swap2\n      pop\n      pop\n      jump\t// out\n        /* \"#utility.yul\":6437:6617   */\n    tag_68:\n        /* \"#utility.yul\":6485:6562   */\n      0x4e487b7100000000000000000000000000000000000000000000000000000000\n        /* \"#utility.yul\":6482:6483   */\n      0x00\n        /* \"#utility.yul\":6475:6563   */\n      mstore\n        /* \"#utility.yul\":6582:6586   */\n      0x22\n        /* \"#utility.yul\":6579:6580   */\n      0x04\n        /* \"#utility.yul\":6572:6587   */\n      mstore\n        /* \"#utility.yul\":6606:6610   */\n      0x24\n        /* \"#utility.yul\":6603:6604   */\n      0x00\n        /* \"#utility.yul\":6596:6611   */\n      revert\n        /* \"#utility.yul\":6623:6943   */\n    tag_35:\n        /* \"#utility.yul\":6667:6673   */\n      0x00\n        /* \"#utility.yul\":6704:6705   */\n      0x02\n        /* \"#utility.yul\":6698:6702   */\n      dup3\n        /* \"#utility.yul\":6694:6706   */\n      div\n        /* \"#utility.yul\":6684:6706   */\n      swap1\n      pop\n        /* \"#utility.yul\":6751:6752   */\n      0x01\n        /* \"#utility.yul\":6745:6749   */\n      dup3\n        /* \"#utility.yul\":6741:6753   */\n      and\n        /* \"#utility.yul\":6772:6790   */\n      dup1\n        /* \"#utility.yul\":6762:6843   */\n      tag_159\n      jumpi\n        /* \"#utility.yul\":6828:6832   */\n      0x7f\n        /* \"#utility.yul\":6820:6826   */\n      dup3\n        /* \"#utility.yul\":6816:6833   */\n      and\n        /* \"#utility.yul\":6806:6833   */\n      swap2\n      pop\n        /* \"#utility.yul\":6762:6843   */\n    tag_159:\n        /* \"#utility.yul\":6890:6892   */\n      0x20\n        /* \"#utility.yul\":6882:6888   */\n      dup3\n        /* \"#utility.yul\":6879:6893   */\n      lt\n        /* \"#utility.yul\":6859:6877   */\n      dup2\n        /* \"#utility.yul\":6856:6894   */\n      sub\n        /* \"#utility.yul\":6853:6937   */\n      tag_160\n      jumpi\n        /* \"#utility.yul\":6909:6927   */\n      tag_161\n      tag_68\n      jump\t// in\n    tag_161:\n        /* \"#utility.yul\":6853:6937   */\n    tag_160:\n        /* \"#utility.yul\":6674:6943   */\n      pop\n        /* \"#utility.yul\":6623:6943   */\n      swap2\n      swap1\n      pop\n      jump\t// out\n        /* \"#utility.yul\":6949:7090   */\n    tag_69:\n        /* \"#utility.yul\":6998:7002   */\n      0x00\n        /* \"#utility.yul\":7021:7024   */\n      dup2\n        /* \"#utility.yul\":7013:7024   */\n      swap1\n      pop\n        /* \"#utility.yul\":7044:7047   */\n      dup2\n        /* \"#utility.yul\":7041:7042   */\n      0x00\n        /* \"#utility.yul\":7034:7048   */\n      mstore\n        /* \"#utility.yul\":7078:7082   */\n      0x20\n        /* \"#utility.yul\":7075:7076   */\n      0x00\n        /* \"#utility.yul\":7065:7083   */\n      keccak256\n        /* \"#utility.yul\":7057:7083   */\n      swap1\n      pop\n        /* \"#utility.yul\":6949:7090   */\n      swap2\n      swap1\n      pop\n      jump\t// out\n        /* \"#utility.yul\":7096:7189   */\n    tag_70:\n        /* \"#utility.yul\":7133:7139   */\n      0x00\n        /* \"#utility.yul\":7180:7182   */\n      0x20\n        /* \"#utility.yul\":7175:7177   */\n      0x1f\n        /* \"#utility.yul\":7168:7173   */\n      dup4\n        /* \"#utility.yul\":7164:7178   */\n      add\n        /* \"#utility.yul\":7160:7183   */\n      div\n        /* \"#utility.yul\":7150:7183   */\n      swap1\n      pop\n        /* \"#utility.yul\":7096:7189   */\n      swap2\n      swap1\n      pop\n      jump\t// out\n        /* \"#utility.yul\":7195:7302   */\n    tag_71:\n        /* \"#utility.yul\":7239:7247   */\n      0x00\n        /* \"#utility.yul\":7289:7294   */\n      dup3\n        /* \"#utility.yul\":7283:7287   */\n      dup3\n        /* \"#utility.yul\":7279:7295   */\n      shl\n        /* \"#utility.yul\":7258:7295   */\n      swap1\n      pop\n        /* \"#utility.yul\":7195:7302   */\n      swap3\n      swap2\n      pop\n      pop\n      jump\t// out\n        /* \"#utility.yul\":7308:7701   */\n    tag_72:\n        /* \"#utility.yul\":7377:7383   */\n      0x00\n        /* \"#utility.yul\":7427:7428   */\n      0x08\n        /* \"#utility.yul\":7415:7425   */\n      dup4\n        /* \"#utility.yul\":7411:7429   */\n      mul\n        /* \"#utility.yul\":7450:7547   */\n      tag_166\n        /* \"#utility.yul\":7480:7546   */\n      0xffffffffffffffffffffffffffffffffffffffffffffffffffffffffffffffff\n        /* \"#utility.yul\":7469:7478   */\n      dup3\n        /* \"#utility.yul\":7450:7547   */\n      tag_71\n      jump\t// in\n    tag_166:\n        /* \"#utility.yul\":7568:7607   */\n      tag_167\n        /* \"#utility.yul\":7598:7606   */\n      dup7\n        /* \"#utility.yul\":7587:7596   */\n      dup4\n        /* \"#utility.yul\":7568:7607   */\n      tag_71\n      jump\t// in\n    tag_167:\n        /* \"#utility.yul\":7556:7607   */\n      swap6\n      pop\n        /* \"#utility.yul\":7640:7644   */\n      dup1\n        /* \"#utility.yul\":7636:7645   */\n      not\n        /* \"#utility.yul\":7629:7634   */\n      dup5\n        /* \"#utility.yul\":7625:7646   */\n      and\n        /* \"#utility.yul\":7616:7646   */\n      swap4\n      pop\n        /* \"#utility.yul\":7689:7693   */\n      dup1\n        /* \"#utility.yul\":7679:7687   */\n      dup7\n        /* \"#utility.yul\":7675:7694   */\n      and\n        /* \"#utility.yul\":7668:7673   */\n      dup5\n        /* \"#utility.yul\":7665:7695   */\n      or\n        /* \"#utility.yul\":7655:7695   */\n      swap3\n      pop\n        /* \"#utility.yul\":7384:7701   */\n      pop\n      pop\n        /* \"#utility.yul\":7308:7701   */\n      swap4\n      swap3\n      pop\n      pop\n      pop\n      jump\t// out\n        /* \"#utility.yul\":7707:7767   */\n    tag_73:\n        /* \"#utility.yul\":7735:7738   */\n      0x00\n        /* \"#utility.yul\":7756:7761   */\n      dup2\n        /* \"#utility.yul\":7749:7761   */\n      swap1\n      pop\n        /* \"#utility.yul\":7707:7767   */\n      swap2\n      swap1\n      pop\n      jump\t// out\n        /* \"#utility.yul\":7773:7915   */\n    tag_74:\n        /* \"#utility.yul\":7823:7832   */\n      0x00\n        /* \"#utility.yul\":7856:7909   */\n      tag_170\n        /* \"#utility.yul\":7874:7908   */\n      tag_171\n        /* \"#utility.yul\":7883:7907   */\n      tag_172\n        /* \"#utility.yul\":7901:7906   */\n      dup5\n        /* \"#utility.yul\":7883:7907   */\n      tag_45\n      jump\t// in\n    tag_172:\n        /* \"#utility.yul\":7874:7908   */\n      tag_73\n      jump\t// in\n    tag_171:\n        /* \"#utility.yul\":7856:7909   */\n      tag_45\n      jump\t// in\n    tag_170:\n        /* \"#utility.yul\":7843:7909   */\n      swap1\n      pop\n        /* \"#utility.yul\":7773:7915   */\n      swap2\n      swap1\n      pop\n      jump\t// out\n        /* \"#utility.yul\":7921:7996   */\n    tag_75:\n        /* \"#utility.yul\":7964:7967   */\n      0x00\n        /* \"#utility.yul\":7985:7990   */\n      dup2\n        /* \"#utility.yul\":7978:7990   */\n      swap1\n      pop\n        /* \"#utility.yul\":7921:7996   */\n      swap2\n      swap1\n      pop\n      jump\t// out\n        /* \"#utility.yul\":8002:8271   */\n    tag_76:\n        /* \"#utility.yul\":8112:8151   */\n      tag_175\n        /* \"#utility.yul\":8143:8150   */\n      dup4\n        /* \"#utility.yul\":8112:8151   */\n      tag_74\n      jump\t// in\n    tag_175:\n        /* \"#utility.yul\":8173:8264   */\n      tag_176\n        /* \"#utility.yul\":8222:8263   */\n      tag_177\n        /* \"#utility.yul\":8246:8262   */\n      dup3\n        /* \"#utility.yul\":8222:8263   */\n      tag_75\n      jump\t// in\n    tag_177:\n        /* \"#utility.yul\":8214:8220   */\n      dup5\n        /* \"#utility.yul\":8207:8211   */\n      dup5\n        /* \"#utility.yul\":8201:8212   */\n      sload\n        /* \"#utility.yul\":8173:8264   */\n      tag_72\n      jump\t// in\n    tag_176:\n        /* \"#utility.yul\":8167:8171   */\n      dup3\n        /* \"#utility.yul\":8160:8265   */\n      sstore\n        /* \"#utility.yul\":8078:8271   */\n      pop\n        /* \"#utility.yul\":8002:8271   */\n      pop\n      pop\n      pop\n      jump\t// out\n        /* \"#utility.yul\":8277:8350   */\n    tag_77:\n        /* \"#utility.yul\":8322:8325   */\n      0x00\n        /* \"#utility.yul\":8277:8350   */\n      swap1\n      jump\t// out\n        /* \"#utility.yul\":8356:8545   */\n    tag_78:\n        /* \"#utility.yul\":8433:8465   */\n      tag_180\n      tag_77\n      jump\t// in\n    tag_180:\n        /* \"#utility.yul\":8474:8539   */\n      tag_181\n        /* \"#utility.yul\":8532:8538   */\n      dup2\n        /* \"#utility.yul\":8524:8530   */\n      dup5\n        /* \"#utility.yul\":8518:8522   */\n      dup5\n        /* \"#utility.yul\":8474:8539   */\n      tag_76\n      jump\t// in\n    tag_181:\n        /* \"#utility.yul\":8409:8545   */\n      pop\n        /* \"#utility.yul\":8356:8545   */\n      pop\n      pop\n      jump\t// out\n        /* \"#utility.yul\":8551:8737   */\n    tag_79:\n        /* \"#utility.yul\":8611:8731   */\n    tag_183:\n        /* \"#utility.yul\":8628:8631   */\n      dup2\n        /* \"#utility.yul\":8621:8626   */\n      dup2\n        /* \"#utility.yul\":8618:8632   */\n      lt\n        /* \"#utility.yul\":8611:8731   */\n      iszero\n      tag_185\n      jumpi\n        /* \"#utility.yul\":8682:8721   */\n      tag_186\n        /* \"#utility.yul\":8719:8720   */\n      0x00\n        /* \"#utility.yul\":8712:8717   */\n      dup3\n        /* \"#utility.yul\":8682:8721   */\n      tag_78\n      jump\t// in\n    tag_186:\n        /* \"#utility.yul\":8655:8656   */\n      0x01\n        /* \"#utility.yul\":8648:8653   */\n      dup2\n        /* \"#utility.yul\":8644:8657   */\n      add\n        /* \"#utility.yul\":8635:8657   */\n      swap1\n      pop\n        /* \"#utility.yul\":8611:8731   */\n      jump(tag_183)\n    tag_185:\n        /* \"#utility.yul\":8551:8737   */\n      pop\n      pop\n      jump\t// out\n        /* \"#utility.yul\":8743:9286   */\n    tag_80:\n        /* \"#utility.yul\":8844:8846   */\n      0x1f\n        /* \"#utility.yul\":8839:8842   */\n      dup3\n        /* \"#utility.yul\":8836:8847   */\n      gt\n        /* \"#utility.yul\":8833:9279   */\n      iszero\n      tag_188\n      jumpi\n        /* \"#utility.yul\":8878:8916   */\n      tag_189\n        /* \"#utility.yul\":8910:8915   */\n      dup2\n        /* \"#utility.yul\":8878:8916   */\n      tag_69\n      jump\t// in\n    tag_189:\n        /* \"#utility.yul\":8962:8991   */\n      tag_190\n        /* \"#utility.yul\":8980:8990   */\n      dup5\n        /* \"#utility.yul\":8962:8991   */\n      tag_70\n      jump\t// in\n    tag_190:\n        /* \"#utility.yul\":8952:8960   */\n      dup2\n        /* \"#utility.yul\":8948:8992   */\n      add\n        /* \"#utility.yul\":9145:9147   */\n      0x20\n        /* \"#utility.yul\":9133:9143   */\n      dup6\n        /* \"#utility.yul\":9130:9148   */\n      lt\n        /* \"#utility.yul\":9127:9176   */\n      iszero\n      tag_191\n      jumpi\n        /* \"#utility.yul\":9166:9174   */\n      dup2\n        /* \"#utility.yul\":9151:9174   */\n      swap1\n      pop\n        /* \"#utility.yul\":9127:9176   */\n    tag_191:\n        /* \"#utility.yul\":9189:9269   */\n      tag_192\n        /* \"#utility.yul\":9245:9267   */\n      tag_193\n        /* \"#utility.yul\":9263:9266   */\n      dup6\n        /* \"#utility.yul\":9245:9267   */\n      tag_70\n      jump\t// in\n    tag_193:\n        /* \"#utility.yul\":9235:9243   */\n      dup4\n        /* \"#utility.yul\":9231:9268   */\n      add\n        /* \"#utility.yul\":9218:9229   */\n      dup3\n        /* \"#utility.yul\":9189:9269   */\n      tag_79\n      jump\t// in\n    tag_192:\n        /* \"#utility.yul\":8848:9279   */\n      pop\n      pop\n        /* \"#utility.yul\":8833:9279   */\n    tag_188:\n        /* \"#utility.yul\":8743:9286   */\n      pop\n      pop\n      pop\n      jump\t// out\n        /* \"#utility.yul\":9292:9409   */\n    tag_81:\n        /* \"#utility.yul\":9346:9354   */\n      0x00\n        /* \"#utility.yul\":9396:9401   */\n      dup3\n        /* \"#utility.yul\":9390:9394   */\n      dup3\n        /* \"#utility.yul\":9386:9402   */\n      shr\n        /* \"#utility.yul\":9365:9402   */\n      swap1\n      pop\n        /* \"#utility.yul\":9292:9409   */\n      swap3\n      swap2\n      pop\n      pop\n      jump\t// out\n        /* \"#utility.yul\":9415:9584   */\n    tag_82:\n        /* \"#utility.yul\":9459:9465   */\n      0x00\n        /* \"#utility.yul\":9492:9543   */\n      tag_196\n        /* \"#utility.yul\":9540:9541   */\n      0x00\n        /* \"#utility.yul\":9536:9542   */\n      not\n        /* \"#utility.yul\":9528:9533   */\n      dup5\n        /* \"#utility.yul\":9525:9526   */\n      0x08\n        /* \"#utility.yul\":9521:9534   */\n      mul\n        /* \"#utility.yul\":9492:9543   */\n      tag_81\n      jump\t// in\n    tag_196:\n        /* \"#utility.yul\":9488:9544   */\n      not\n        /* \"#utility.yul\":9573:9577   */\n      dup1\n        /* \"#utility.yul\":9567:9571   */\n      dup4\n        /* \"#utility.yul\":9563:9578   */\n      and\n        /* \"#utility.yul\":9553:9578   */\n      swap2\n      pop\n        /* \"#utility.yul\":9466:9584   */\n      pop\n        /* \"#utility.yul\":9415:9584   */\n      swap3\n      swap2\n      pop\n      pop\n      jump\t// out\n        /* \"#utility.yul\":9589:9884   */\n    tag_83:\n        /* \"#utility.yul\":9665:9669   */\n      0x00\n        /* \"#utility.yul\":9811:9840   */\n      tag_198\n        /* \"#utility.yul\":9836:9839   */\n      dup4\n        /* \"#utility.yul\":9830:9834   */\n      dup4\n        /* \"#utility.yul\":9811:9840   */\n      tag_82\n      jump\t// in\n    tag_198:\n        /* \"#utility.yul\":9803:9840   */\n      swap2\n      pop\n        /* \"#utility.yul\":9873:9876   */\n      dup3\n        /* \"#utility.yul\":9870:9871   */\n      0x02\n        /* \"#utility.yul\":9866:9877   */\n      mul\n        /* \"#utility.yul\":9860:9864   */\n      dup3\n        /* \"#utility.yul\":9857:9878   */\n      or\n        /* \"#utility.yul\":9849:9878   */\n      swap1\n      pop\n        /* \"#utility.yul\":9589:9884   */\n      swap3\n      swap2\n      pop\n      pop\n      jump\t// out\n        /* \"#utility.yul\":9889:11284   */\n    tag_44:\n        /* \"#utility.yul\":10006:10043   */\n      tag_200\n        /* \"#utility.yul\":10039:10042   */\n      dup3\n        /* \"#utility.yul\":10006:10043   */\n      tag_52\n      jump\t// in\n    tag_200:\n        /* \"#utility.yul\":10108:10126   */\n      0xffffffffffffffff\n        /* \"#utility.yul\":10100:10106   */\n      dup2\n        /* \"#utility.yul\":10097:10127   */\n      gt\n        /* \"#utility.yul\":10094:10150   */\n      iszero\n      tag_201\n      jumpi\n        /* \"#utility.yul\":10130:10148   */\n      tag_202\n      tag_59\n      jump\t// in\n    tag_202:\n        /* \"#utility.yul\":10094:10150   */\n    tag_201:\n        /* \"#utility.yul\":10174:10212   */\n      tag_203\n        /* \"#utility.yul\":10206:10210   */\n      dup3\n        /* \"#utility.yul\":10200:10211   */\n      sload\n        /* \"#utility.yul\":10174:10212   */\n      tag_35\n      jump\t// in\n    tag_203:\n        /* \"#utility.yul\":10259:10326   */\n      tag_204\n        /* \"#utility.yul\":10319:10325   */\n      dup3\n        /* \"#utility.yul\":10311:10317   */\n      dup3\n        /* \"#utility.yul\":10305:10309   */\n      dup6\n        /* \"#utility.yul\":10259:10326   */\n      tag_80\n      jump\t// in\n    tag_204:\n        /* \"#utility.yul\":10353:10354   */\n      0x00\n        /* \"#utility.yul\":10377:10381   */\n      0x20\n        /* \"#utility.yul\":10364:10381   */\n      swap1\n      pop\n        /* \"#utility.yul\":10409:10411   */\n      0x1f\n        /* \"#utility.yul\":10401:10407   */\n      dup4\n        /* \"#utility.yul\":10398:10412   */\n      gt\n        /* \"#utility.yul\":10426:10427   */\n      0x01\n        /* \"#utility.yul\":10421:11039   */\n      dup2\n      eq\n      tag_206\n      jumpi\n        /* \"#utility.yul\":11083:11084   */\n      0x00\n        /* \"#utility.yul\":11100:11106   */\n      dup5\n        /* \"#utility.yul\":11097:11174   */\n      iszero\n      tag_207\n      jumpi\n        /* \"#utility.yul\":11149:11158   */\n      dup3\n        /* \"#utility.yul\":11144:11147   */\n      dup8\n        /* \"#utility.yul\":11140:11159   */\n      add\n        /* \"#utility.yul\":11134:11160   */\n      mload\n        /* \"#utility.yul\":11125:11160   */\n      swap1\n      pop\n        /* \"#utility.yul\":11097:11174   */\n    tag_207:\n        /* \"#utility.yul\":11200:11267   */\n      tag_208\n        /* \"#utility.yul\":11260:11266   */\n      dup6\n        /* \"#utility.yul\":11253:11258   */\n      dup3\n        /* \"#utility.yul\":11200:11267   */\n      tag_83\n      jump\t// in\n    tag_208:\n        /* \"#utility.yul\":11194:11198   */\n      dup7\n        /* \"#utility.yul\":11187:11268   */\n      sstore\n        /* \"#utility.yul\":11056:11278   */\n      pop\n        /* \"#utility.yul\":10391:11278   */\n      jump(tag_205)\n        /* \"#utility.yul\":10421:11039   */\n    tag_206:\n        /* \"#utility.yul\":10473:10477   */\n      0x1f\n        /* \"#utility.yul\":10469:10478   */\n      not\n        /* \"#utility.yul\":10461:10467   */\n      dup5\n        /* \"#utility.yul\":10457:10479   */\n      and\n        /* \"#utility.yul\":10507:10544   */\n      tag_209\n        /* \"#utility.yul\":10539:10543   */\n      dup7\n        /* \"#utility.yul\":10507:10544   */\n      tag_69\n      jump\t// in\n    tag_209:\n        /* \"#utility.yul\":10566:10567   */\n      0x00\n        /* \"#utility.yul\":10580:10788   */\n    tag_210:\n        /* \"#utility.yul\":10594:10601   */\n      dup3\n        /* \"#utility.yul\":10591:10592   */\n      dup2\n        /* \"#utility.yul\":10588:10602   */\n      lt\n        /* \"#utility.yul\":10580:10788   */\n      iszero\n      tag_212\n      jumpi\n        /* \"#utility.yul\":10673:10682   */\n      dup5\n        /* \"#utility.yul\":10668:10671   */\n      dup10\n        /* \"#utility.yul\":10664:10683   */\n      add\n        /* \"#utility.yul\":10658:10684   */\n      mload\n        /* \"#utility.yul\":10650:10656   */\n      dup3\n        /* \"#utility.yul\":10643:10685   */\n      sstore\n        /* \"#utility.yul\":10724:10725   */\n      0x01\n        /* \"#utility.yul\":10716:10722   */\n      dup3\n        /* \"#utility.yul\":10712:10726   */\n      add\n        /* \"#utility.yul\":10702:10726   */\n      swap2\n      pop\n        /* \"#utility.yul\":10771:10773   */\n      0x20\n        /* \"#utility.yul\":10760:10769   */\n      dup6\n        /* \"#utility.yul\":10756:10774   */\n      add\n        /* \"#utility.yul\":10743:10774   */\n      swap5\n      pop\n        /* \"#utility.yul\":10617:10621   */\n      0x20\n        /* \"#utility.yul\":10614:10615   */\n      dup2\n        /* \"#utility.yul\":10610:10622   */\n      add\n        /* \"#utility.yul\":10605:10622   */\n      swap1\n      pop\n        /* \"#utility.yul\":10580:10788   */\n      jump(tag_210)\n    tag_212:\n        /* \"#utility.yul\":10816:10822   */\n      dup7\n        /* \"#utility.yul\":10807:10814   */\n      dup4\n        /* \"#utility.yul\":10804:10823   */\n      lt\n        /* \"#utility.yul\":10801:10980   */\n      iszero\n      tag_213\n      jumpi\n        /* \"#utility.yul\":10874:10883   */\n      dup5\n        /* \"#utility.yul\":10869:10872   */\n      dup10\n        /* \"#utility.yul\":10865:10884   */\n      add\n        /* \"#utility.yul\":10859:10885   */\n      mload\n        /* \"#utility.yul\":10917:10965   */\n      tag_214\n        /* \"#utility.yul\":10959:10963   */\n      0x1f\n        /* \"#utility.yul\":10951:10957   */\n      dup10\n        /* \"#utility.yul\":10947:10964   */\n      and\n        /* \"#utility.yul\":10936:10945   */\n      dup3\n        /* \"#utility.yul\":10917:10965   */\n      tag_82\n      jump\t// in\n    tag_214:\n        /* \"#utility.yul\":10909:10915   */\n      dup4\n        /* \"#utility.yul\":10902:10966   */\n      sstore\n        /* \"#utility.yul\":10824:10980   */\n      pop\n        /* \"#utility.yul\":10801:10980   */\n    tag_213:\n        /* \"#utility.yul\":11026:11027   */\n      0x01\n        /* \"#utility.yul\":11022:11023   */\n      0x02\n        /* \"#utility.yul\":11014:11020   */\n      dup9\n        /* \"#utility.yul\":11010:11024   */\n      mul\n        /* \"#utility.yul\":11006:11028   */\n      add\n        /* \"#utility.yul\":11000:11004   */\n      dup9\n        /* \"#utility.yul\":10993:11029   */\n      sstore\n        /* \"#utility.yul\":10428:11039   */\n      pop\n      pop\n      pop\n        /* \"#utility.yul\":10391:11278   */\n    tag_205:\n      pop\n        /* \"#utility.yul\":9981:11284   */\n      pop\n      pop\n      pop\n        /* \"#utility.yul\":9889:11284   */\n      pop\n      pop\n      jump\t// out\n\n    auxdata: 0xa2646970667358221220a736f58cde0540db4c0c5684894e49eb023ded87a70119675dc9857a328bfb5764736f6c634300081a0033\n}\n",
				"bytecode": {
					"linkReferences": {},
					"object": "6080604052348015600e575f80fd5b506108a08061001c5f395ff3fe608060405234801561000f575f80fd5b5060043610610055575f3560e01c80632e64cec1146100595780632ebce631146100775780636057361d146100a8578063795fff1d146100c45780638bab8dd5146100e0575b5f80fd5b610061610110565b60405161006e9190610284565b60405180910390f35b610091600480360381019061008c91906102d8565b610118565b60405161009f929190610373565b60405180910390f35b6100c260048036038101906100bd91906102d8565b6101cd565b005b6100de60048036038101906100d991906104cd565b6101d6565b005b6100fa60048036038101906100f59190610527565b610237565b6040516101079190610588565b60405180910390f35b5f8054905090565b60018181548110610127575f80fd5b905f5260205f2090600202015f91509050805f01549080600101805461014c906105ce565b80601f0160208091040260200160405190810160405280929190818152602001828054610178906105ce565b80156101c35780601f1061019a576101008083540402835291602001916101c3565b820191905f5260205f20905b8154815290600101906020018083116101a657829003601f168201915b5050505050905082565b805f8190555050565b6001604051806040016040528083815260200184815250908060018154018082558091505060019003905f5260205f2090600202015f909190919091505f820151815f01556020820151816001019081610230919061079b565b5050505050565b6002818051602081018201805184825260208301602085012081835280955050505050505f915054906101000a900460ff1681565b5f819050919050565b61027e8161026c565b82525050565b5f6020820190506102975f830184610275565b92915050565b5f604051905090565b5f80fd5b5f80fd5b6102b78161026c565b81146102c1575f80fd5b50565b5f813590506102d2816102ae565b92915050565b5f602082840312156102ed576102ec6102a6565b5b5f6102fa848285016102c4565b91505092915050565b5f81519050919050565b5f82825260208201905092915050565b8281835e5f83830152505050565b5f601f19601f8301169050919050565b5f61034582610303565b61034f818561030d565b935061035f81856020860161031d565b6103688161032b565b840191505092915050565b5f6040820190506103865f830185610275565b8181036020830152610398818461033b565b90509392505050565b5f80fd5b5f80fd5b7f4e487b71000000000000000000000000000000000000000000000000000000005f52604160045260245ffd5b6103df8261032b565b810181811067ffffffffffffffff821117156103fe576103fd6103a9565b5b80604052505050565b5f61041061029d565b905061041c82826103d6565b919050565b5f67ffffffffffffffff82111561043b5761043a6103a9565b5b6104448261032b565b9050602081019050919050565b828183375f83830152505050565b5f61047161046c84610421565b610407565b90508281526020810184848401111561048d5761048c6103a5565b5b610498848285610451565b509392505050565b5f82601f8301126104b4576104b36103a1565b5b81356104c484826020860161045f565b91505092915050565b5f80604083850312156104e3576104e26102a6565b5b5f83013567ffffffffffffffff811115610500576104ff6102aa565b5b61050c858286016104a0565b925050602061051d858286016102c4565b9150509250929050565b5f6020828403121561053c5761053b6102a6565b5b5f82013567ffffffffffffffff811115610559576105586102aa565b5b610565848285016104a0565b91505092915050565b5f8115159050919050565b6105828161056e565b82525050565b5f60208201905061059b5f830184610579565b92915050565b7f4e487b71000000000000000000000000000000000000000000000000000000005f52602260045260245ffd5b5f60028204905060018216806105e557607f821691505b6020821081036105f8576105f76105a1565b5b50919050565b5f819050815f5260205f209050919050565b5f6020601f8301049050919050565b5f82821b905092915050565b5f6008830261065a7fffffffffffffffffffffffffffffffffffffffffffffffffffffffffffffffff8261061f565b610664868361061f565b95508019841693508086168417925050509392505050565b5f819050919050565b5f61069f61069a6106958461026c565b61067c565b61026c565b9050919050565b5f819050919050565b6106b883610685565b6106cc6106c4826106a6565b84845461062b565b825550505050565b5f90565b6106e06106d4565b6106eb8184846106af565b505050565b5b8181101561070e576107035f826106d8565b6001810190506106f1565b5050565b601f82111561075357610724816105fe565b61072d84610610565b8101602085101561073c578190505b61075061074885610610565b8301826106f0565b50505b505050565b5f82821c905092915050565b5f6107735f1984600802610758565b1980831691505092915050565b5f61078b8383610764565b9150826002028217905092915050565b6107a482610303565b67ffffffffffffffff8111156107bd576107bc6103a9565b5b6107c782546105ce565b6107d2828285610712565b5f60209050601f831160018114610803575f84156107f1578287015190505b6107fb8582610780565b865550610862565b601f198416610811866105fe565b5f5b8281101561083857848901518255600182019150602085019450602081019050610813565b868310156108555784890151610851601f891682610764565b8355505b6001600288020188555050505b50505050505056fea2646970667358221220a736f58cde0540db4c0c5684894e49eb023ded87a70119675dc9857a328bfb5764736f6c634300081a0033",
					"opcodes": "PUSH1 0x80 PUSH1 0x40 MSTORE CALLVALUE DUP1 ISZERO PUSH1 0xE JUMPI PUSH0 DUP1 REVERT JUMPDEST POP PUSH2 0x8A0 DUP1 PUSH2 0x1C PUSH0 CODECOPY PUSH0 RETURN INVALID PUSH1 0x80 PUSH1 0x40 MSTORE CALLVALUE DUP1 ISZERO PUSH2 0xF JUMPI PUSH0 DUP1 REVERT JUMPDEST POP PUSH1 0x4 CALLDATASIZE LT PUSH2 0x55 JUMPI PUSH0 CALLDATALOAD PUSH1 0xE0 SHR DUP1 PUSH4 0x2E64CEC1 EQ PUSH2 0x59 JUMPI DUP1 PUSH4 0x2EBCE631 EQ PUSH2 0x77 JUMPI DUP1 PUSH4 0x6057361D EQ PUSH2 0xA8 JUMPI DUP1 PUSH4 0x795FFF1D EQ PUSH2 0xC4 JUMPI DUP1 PUSH4 0x8BAB8DD5 EQ PUSH2 0xE0 JUMPI JUMPDEST PUSH0 DUP1 REVERT JUMPDEST PUSH2 0x61 PUSH2 0x110 JUMP JUMPDEST PUSH1 0x40 MLOAD PUSH2 0x6E SWAP2 SWAP1 PUSH2 0x284 JUMP JUMPDEST PUSH1 0x40 MLOAD DUP1 SWAP2 SUB SWAP1 RETURN JUMPDEST PUSH2 0x91 PUSH1 0x4 DUP1 CALLDATASIZE SUB DUP2 ADD SWAP1 PUSH2 0x8C SWAP2 SWAP1 PUSH2 0x2D8 JUMP JUMPDEST PUSH2 0x118 JUMP JUMPDEST PUSH1 0x40 MLOAD PUSH2 0x9F SWAP3 SWAP2 SWAP1 PUSH2 0x373 JUMP JUMPDEST PUSH1 0x40 MLOAD DUP1 SWAP2 SUB SWAP1 RETURN JUMPDEST PUSH2 0xC2 PUSH1 0x4 DUP1 CALLDATASIZE SUB DUP2 ADD SWAP1 PUSH2 0xBD SWAP2 SWAP1 PUSH2 0x2D8 JUMP JUMPDEST PUSH2 0x1CD JUMP JUMPDEST STOP JUMPDEST PUSH2 0xDE PUSH1 0x4 DUP1 CALLDATASIZE SUB DUP2 ADD SWAP1 PUSH2 0xD9 SWAP2 SWAP1 PUSH2 0x4CD JUMP JUMPDEST PUSH2 0x1D6 JUMP JUMPDEST STOP JUMPDEST PUSH2 0xFA PUSH1 0x4 DUP1 CALLDATASIZE SUB DUP2 ADD SWAP1 PUSH2 0xF5 SWAP2 SWAP1 PUSH2 0x527 JUMP JUMPDEST PUSH2 0x237 JUMP JUMPDEST PUSH1 0x40 MLOAD PUSH2 0x107 SWAP2 SWAP1 PUSH2 0x588 JUMP JUMPDEST PUSH1 0x40 MLOAD DUP1 SWAP2 SUB SWAP1 RETURN JUMPDEST PUSH0 DUP1 SLOAD SWAP1 POP SWAP1 JUMP JUMPDEST PUSH1 0x1 DUP2 DUP2 SLOAD DUP2 LT PUSH2 0x127 JUMPI PUSH0 DUP1 REVERT JUMPDEST SWAP1 PUSH0 MSTORE PUSH1 0x20 PUSH0 KECCAK256 SWAP1 PUSH1 0x2 MUL ADD PUSH0 SWAP2 POP SWAP1 POP DUP1 PUSH0 ADD SLOAD SWAP1 DUP1 PUSH1 0x1 ADD DUP1 SLOAD PUSH2 0x14C SWAP1 PUSH2 0x5CE JUMP JUMPDEST DUP1 PUSH1 0x1F ADD PUSH1 0x20 DUP1 SWAP2 DIV MUL PUSH1 0x20 ADD PUSH1 0x40 MLOAD SWAP1 DUP2 ADD PUSH1 0x40 MSTORE DUP1 SWAP3 SWAP2 SWAP1 DUP2 DUP2 MSTORE PUSH1 0x20 ADD DUP3 DUP1 SLOAD PUSH2 0x178 SWAP1 PUSH2 0x5CE JUMP JUMPDEST DUP1 ISZERO PUSH2 0x1C3 JUMPI DUP1 PUSH1 0x1F LT PUSH2 0x19A JUMPI PUSH2 0x100 DUP1 DUP4 SLOAD DIV MUL DUP4 MSTORE SWAP2 PUSH1 0x20 ADD SWAP2 PUSH2 0x1C3 JUMP JUMPDEST DUP3 ADD SWAP2 SWAP1 PUSH0 MSTORE PUSH1 0x20 PUSH0 KECCAK256 SWAP1 JUMPDEST DUP2 SLOAD DUP2 MSTORE SWAP1 PUSH1 0x1 ADD SWAP1 PUSH1 0x20 ADD DUP1 DUP4 GT PUSH2 0x1A6 JUMPI DUP3 SWAP1 SUB PUSH1 0x1F AND DUP3 ADD SWAP2 JUMPDEST POP POP POP POP POP SWAP1 POP DUP3 JUMP JUMPDEST DUP1 PUSH0 DUP2 SWAP1 SSTORE POP POP JUMP JUMPDEST PUSH1 0x1 PUSH1 0x40 MLOAD DUP1 PUSH1 0x40 ADD PUSH1 0x40 MSTORE DUP1 DUP4 DUP2 MSTORE PUSH1 0x20 ADD DUP5 DUP2 MSTORE POP SWAP1 DUP1 PUSH1 0x1 DUP2 SLOAD ADD DUP1 DUP3 SSTORE DUP1 SWAP2 POP POP PUSH1 0x1 SWAP1 SUB SWAP1 PUSH0 MSTORE PUSH1 0x20 PUSH0 KECCAK256 SWAP1 PUSH1 0x2 MUL ADD PUSH0 SWAP1 SWAP2 SWAP1 SWAP2 SWAP1 SWAP2 POP PUSH0 DUP3 ADD MLOAD DUP2 PUSH0 ADD SSTORE PUSH1 0x20 DUP3 ADD MLOAD DUP2 PUSH1 0x1 ADD SWAP1 DUP2 PUSH2 0x230 SWAP2 SWAP1 PUSH2 0x79B JUMP JUMPDEST POP POP POP POP POP JUMP JUMPDEST PUSH1 0x2 DUP2 DUP1 MLOAD PUSH1 0x20 DUP2 ADD DUP3 ADD DUP1 MLOAD DUP5 DUP3 MSTORE PUSH1 0x20 DUP4 ADD PUSH1 0x20 DUP6 ADD KECCAK256 DUP2 DUP4 MSTORE DUP1 SWAP6 POP POP POP POP POP POP PUSH0 SWAP2 POP SLOAD SWAP1 PUSH2 0x100 EXP SWAP1 DIV PUSH1 0xFF AND DUP2 JUMP JUMPDEST PUSH0 DUP2 SWAP1 POP SWAP2 SWAP1 POP JUMP JUMPDEST PUSH2 0x27E DUP2 PUSH2 0x26C JUMP JUMPDEST DUP3 MSTORE POP POP JUMP JUMPDEST PUSH0 PUSH1 0x20 DUP3 ADD SWAP1 POP PUSH2 0x297 PUSH0 DUP4 ADD DUP5 PUSH2 0x275 JUMP JUMPDEST SWAP3 SWAP2 POP POP JUMP JUMPDEST PUSH0 PUSH1 0x40 MLOAD SWAP1 POP SWAP1 JUMP JUMPDEST PUSH0 DUP1 REVERT JUMPDEST PUSH0 DUP1 REVERT JUMPDEST PUSH2 0x2B7 DUP2 PUSH2 0x26C JUMP JUMPDEST DUP2 EQ PUSH2 0x2C1 JUMPI PUSH0 DUP1 REVERT JUMPDEST POP JUMP JUMPDEST PUSH0 DUP2 CALLDATALOAD SWAP1 POP PUSH2 0x2D2 DUP2 PUSH2 0x2AE JUMP JUMPDEST SWAP3 SWAP2 POP POP JUMP JUMPDEST PUSH0 PUSH1 0x20 DUP3 DUP5 SUB SLT ISZERO PUSH2 0x2ED JUMPI PUSH2 0x2EC PUSH2 0x2A6 JUMP JUMPDEST JUMPDEST PUSH0 PUSH2 0x2FA DUP5 DUP3 DUP6 ADD PUSH2 0x2C4 JUMP JUMPDEST SWAP2 POP POP SWAP3 SWAP2 POP POP JUMP JUMPDEST PUSH0 DUP2 MLOAD SWAP1 POP SWAP2 SWAP1 POP JUMP JUMPDEST PUSH0 DUP3 DUP3 MSTORE PUSH1 0x20 DUP3 ADD SWAP1 POP SWAP3 SWAP2 POP POP JUMP JUMPDEST DUP3 DUP2 DUP4 MCOPY PUSH0 DUP4 DUP4 ADD MSTORE POP POP POP JUMP JUMPDEST PUSH0 PUSH1 0x1F NOT PUSH1 0x1F DUP4 ADD AND SWAP1 POP SWAP2 SWAP1 POP JUMP JUMPDEST PUSH0 PUSH2 0x345 DUP3 PUSH2 0x303 JUMP JUMPDEST PUSH2 0x34F DUP2 DUP6 PUSH2 0x30D JUMP JUMPDEST SWAP4 POP PUSH2 0x35F DUP2 DUP6 PUSH1 0x20 DUP7 ADD PUSH2 0x31D JUMP JUMPDEST PUSH2 0x368 DUP2 PUSH2 0x32B JUMP JUMPDEST DUP5 ADD SWAP2 POP POP SWAP3 SWAP2 POP POP JUMP JUMPDEST PUSH0 PUSH1 0x40 DUP3 ADD SWAP1 POP PUSH2 0x386 PUSH0 DUP4 ADD DUP6 PUSH2 0x275 JUMP JUMPDEST DUP2 DUP2 SUB PUSH1 0x20 DUP4 ADD MSTORE PUSH2 0x398 DUP2 DUP5 PUSH2 0x33B JUMP JUMPDEST SWAP1 POP SWAP4 SWAP3 POP POP POP JUMP JUMPDEST PUSH0 DUP1 REVERT JUMPDEST PUSH0 DUP1 REVERT JUMPDEST PUSH32 0x4E487B7100000000000000000000000000000000000000000000000000000000 PUSH0 MSTORE PUSH1 0x41 PUSH1 0x4 MSTORE PUSH1 0x24 PUSH0 REVERT JUMPDEST PUSH2 0x3DF DUP3 PUSH2 0x32B JUMP JUMPDEST DUP2 ADD DUP2 DUP2 LT PUSH8 0xFFFFFFFFFFFFFFFF DUP3 GT OR ISZERO PUSH2 0x3FE JUMPI PUSH2 0x3FD PUSH2 0x3A9 JUMP JUMPDEST JUMPDEST DUP1 PUSH1 0x40 MSTORE POP POP POP JUMP JUMPDEST PUSH0 PUSH2 0x410 PUSH2 0x29D JUMP JUMPDEST SWAP1 POP PUSH2 0x41C DUP3 DUP3 PUSH2 0x3D6 JUMP JUMPDEST SWAP2 SWAP1 POP JUMP JUMPDEST PUSH0 PUSH8 0xFFFFFFFFFFFFFFFF DUP3 GT ISZERO PUSH2 0x43B JUMPI PUSH2 0x43A PUSH2 0x3A9 JUMP JUMPDEST JUMPDEST PUSH2 0x444 DUP3 PUSH2 0x32B JUMP JUMPDEST SWAP1 POP PUSH1 0x20 DUP2 ADD SWAP1 POP SWAP2 SWAP1 POP JUMP JUMPDEST DUP3 DUP2 DUP4 CALLDATACOPY PUSH0 DUP4 DUP4 ADD MSTORE POP POP POP JUMP JUMPDEST PUSH0 PUSH2 0x471 PUSH2 0x46C DUP5 PUSH2 0x421 JUMP JUMPDEST PUSH2 0x407 JUMP JUMPDEST SWAP1 POP DUP3 DUP2 MSTORE PUSH1 0x20 DUP2 ADD DUP5 DUP5 DUP5 ADD GT ISZERO PUSH2 0x48D JUMPI PUSH2 0x48C PUSH2 0x3A5 JUMP JUMPDEST JUMPDEST PUSH2 0x498 DUP5 DUP3 DUP6 PUSH2 0x451 JUMP JUMPDEST POP SWAP4 SWAP3 POP POP POP JUMP JUMPDEST PUSH0 DUP3 PUSH1 0x1F DUP4 ADD SLT PUSH2 0x4B4 JUMPI PUSH2 0x4B3 PUSH2 0x3A1 JUMP JUMPDEST JUMPDEST DUP2 CALLDATALOAD PUSH2 0x4C4 DUP5 DUP3 PUSH1 0x20 DUP7 ADD PUSH2 0x45F JUMP JUMPDEST SWAP2 POP POP SWAP3 SWAP2 POP POP JUMP JUMPDEST PUSH0 DUP1 PUSH1 0x40 DUP4 DUP6 SUB SLT ISZERO PUSH2 0x4E3 JUMPI PUSH2 0x4E2 PUSH2 0x2A6 JUMP JUMPDEST JUMPDEST PUSH0 DUP4 ADD CALLDATALOAD PUSH8 0xFFFFFFFFFFFFFFFF DUP2 GT ISZERO PUSH2 0x500 JUMPI PUSH2 0x4FF PUSH2 0x2AA JUMP JUMPDEST JUMPDEST PUSH2 0x50C DUP6 DUP3 DUP7 ADD PUSH2 0x4A0 JUMP JUMPDEST SWAP3 POP POP PUSH1 0x20 PUSH2 0x51D DUP6 DUP3 DUP7 ADD PUSH2 0x2C4 JUMP JUMPDEST SWAP2 POP POP SWAP3 POP SWAP3 SWAP1 POP JUMP JUMPDEST PUSH0 PUSH1 0x20 DUP3 DUP5 SUB SLT ISZERO PUSH2 0x53C JUMPI PUSH2 0x53B PUSH2 0x2A6 JUMP JUMPDEST JUMPDEST PUSH0 DUP3 ADD CALLDATALOAD PUSH8 0xFFFFFFFFFFFFFFFF DUP2 GT ISZERO PUSH2 0x559 JUMPI PUSH2 0x558 PUSH2 0x2AA JUMP JUMPDEST JUMPDEST PUSH2 0x565 DUP5 DUP3 DUP6 ADD PUSH2 0x4A0 JUMP JUMPDEST SWAP2 POP POP SWAP3 SWAP2 POP POP JUMP JUMPDEST PUSH0 DUP2 ISZERO ISZERO SWAP1 POP SWAP2 SWAP1 POP JUMP JUMPDEST PUSH2 0x582 DUP2 PUSH2 0x56E JUMP JUMPDEST DUP3 MSTORE POP POP JUMP JUMPDEST PUSH0 PUSH1 0x20 DUP3 ADD SWAP1 POP PUSH2 0x59B PUSH0 DUP4 ADD DUP5 PUSH2 0x579 JUMP JUMPDEST SWAP3 SWAP2 POP POP JUMP JUMPDEST PUSH32 0x4E487B7100000000000000000000000000000000000000000000000000000000 PUSH0 MSTORE PUSH1 0x22 PUSH1 0x4 MSTORE PUSH1 0x24 PUSH0 REVERT JUMPDEST PUSH0 PUSH1 0x2 DUP3 DIV SWAP1 POP PUSH1 0x1 DUP3 AND DUP1 PUSH2 0x5E5 JUMPI PUSH1 0x7F DUP3 AND SWAP2 POP JUMPDEST PUSH1 0x20 DUP3 LT DUP2 SUB PUSH2 0x5F8 JUMPI PUSH2 0x5F7 PUSH2 0x5A1 JUMP JUMPDEST JUMPDEST POP SWAP2 SWAP1 POP JUMP JUMPDEST PUSH0 DUP2 SWAP1 POP DUP2 PUSH0 MSTORE PUSH1 0x20 PUSH0 KECCAK256 SWAP1 POP SWAP2 SWAP1 POP JUMP JUMPDEST PUSH0 PUSH1 0x20 PUSH1 0x1F DUP4 ADD DIV SWAP1 POP SWAP2 SWAP1 POP JUMP JUMPDEST PUSH0 DUP3 DUP3 SHL SWAP1 POP SWAP3 SWAP2 POP POP JUMP JUMPDEST PUSH0 PUSH1 0x8 DUP4 MUL PUSH2 0x65A PUSH32 0xFFFFFFFFFFFFFFFFFFFFFFFFFFFFFFFFFFFFFFFFFFFFFFFFFFFFFFFFFFFFFFFF DUP3 PUSH2 0x61F JUMP JUMPDEST PUSH2 0x664 DUP7 DUP4 PUSH2 0x61F JUMP JUMPDEST SWAP6 POP DUP1 NOT DUP5 AND SWAP4 POP DUP1 DUP7 AND DUP5 OR SWAP3 POP POP POP SWAP4 SWAP3 POP POP POP JUMP JUMPDEST PUSH0 DUP2 SWAP1 POP SWAP2 SWAP1 POP JUMP JUMPDEST PUSH0 PUSH2 0x69F PUSH2 0x69A PUSH2 0x695 DUP5 PUSH2 0x26C JUMP JUMPDEST PUSH2 0x67C JUMP JUMPDEST PUSH2 0x26C JUMP JUMPDEST SWAP1 POP SWAP2 SWAP1 POP JUMP JUMPDEST PUSH0 DUP2 SWAP1 POP SWAP2 SWAP1 POP JUMP JUMPDEST PUSH2 0x6B8 DUP4 PUSH2 0x685 JUMP JUMPDEST PUSH2 0x6CC PUSH2 0x6C4 DUP3 PUSH2 0x6A6 JUMP JUMPDEST DUP5 DUP5 SLOAD PUSH2 0x62B JUMP JUMPDEST DUP3 SSTORE POP POP POP POP JUMP JUMPDEST PUSH0 SWAP1 JUMP JUMPDEST PUSH2 0x6E0 PUSH2 0x6D4 JUMP JUMPDEST PUSH2 0x6EB DUP2 DUP5 DUP5 PUSH2 0x6AF JUMP JUMPDEST POP POP POP JUMP JUMPDEST JUMPDEST DUP2 DUP2 LT ISZERO PUSH2 0x70E JUMPI PUSH2 0x703 PUSH0 DUP3 PUSH2 0x6D8 JUMP JUMPDEST PUSH1 0x1 DUP2 ADD SWAP1 POP PUSH2 0x6F1 JUMP JUMPDEST POP POP JUMP JUMPDEST PUSH1 0x1F DUP3 GT ISZERO PUSH2 0x753 JUMPI PUSH2 0x724 DUP2 PUSH2 0x5FE JUMP JUMPDEST PUSH2 0x72D DUP5 PUSH2 0x610 JUMP JUMPDEST DUP2 ADD PUSH1 0x20 DUP6 LT ISZERO PUSH2 0x73C JUMPI DUP2 SWAP1 POP JUMPDEST PUSH2 0x750 PUSH2 0x748 DUP6 PUSH2 0x610 JUMP JUMPDEST DUP4 ADD DUP3 PUSH2 0x6F0 JUMP JUMPDEST POP POP JUMPDEST POP POP POP JUMP JUMPDEST PUSH0 DUP3 DUP3 SHR SWAP1 POP SWAP3 SWAP2 POP POP JUMP JUMPDEST PUSH0 PUSH2 0x773 PUSH0 NOT DUP5 PUSH1 0x8 MUL PUSH2 0x758 JUMP JUMPDEST NOT DUP1 DUP4 AND SWAP2 POP POP SWAP3 SWAP2 POP POP JUMP JUMPDEST PUSH0 PUSH2 0x78B DUP4 DUP4 PUSH2 0x764 JUMP JUMPDEST SWAP2 POP DUP3 PUSH1 0x2 MUL DUP3 OR SWAP1 POP SWAP3 SWAP2 POP POP JUMP JUMPDEST PUSH2 0x7A4 DUP3 PUSH2 0x303 JUMP JUMPDEST PUSH8 0xFFFFFFFFFFFFFFFF DUP2 GT ISZERO PUSH2 0x7BD JUMPI PUSH2 0x7BC PUSH2 0x3A9 JUMP JUMPDEST JUMPDEST PUSH2 0x7C7 DUP3 SLOAD PUSH2 0x5CE JUMP JUMPDEST PUSH2 0x7D2 DUP3 DUP3 DUP6 PUSH2 0x712 JUMP JUMPDEST PUSH0 PUSH1 0x20 SWAP1 POP PUSH1 0x1F DUP4 GT PUSH1 0x1 DUP2 EQ PUSH2 0x803 JUMPI PUSH0 DUP5 ISZERO PUSH2 0x7F1 JUMPI DUP3 DUP8 ADD MLOAD SWAP1 POP JUMPDEST PUSH2 0x7FB DUP6 DUP3 PUSH2 0x780 JUMP JUMPDEST DUP7 SSTORE POP PUSH2 0x862 JUMP JUMPDEST PUSH1 0x1F NOT DUP5 AND PUSH2 0x811 DUP7 PUSH2 0x5FE JUMP JUMPDEST PUSH0 JUMPDEST DUP3 DUP2 LT ISZERO PUSH2 0x838 JUMPI DUP5 DUP10 ADD MLOAD DUP3 SSTORE PUSH1 0x1 DUP3 ADD SWAP2 POP PUSH1 0x20 DUP6 ADD SWAP5 POP PUSH1 0x20 DUP2 ADD SWAP1 POP PUSH2 0x813 JUMP JUMPDEST DUP7 DUP4 LT ISZERO PUSH2 0x855 JUMPI DUP5 DUP10 ADD MLOAD PUSH2 0x851 PUSH1 0x1F DUP10 AND DUP3 PUSH2 0x764 JUMP JUMPDEST DUP4 SSTORE POP JUMPDEST PUSH1 0x1 PUSH1 0x2 DUP9 MUL ADD DUP9 SSTORE POP POP POP JUMPDEST POP POP POP POP POP POP JUMP INVALID LOG2 PUSH5 0x6970667358 0x22 SLT KECCAK256 0xA7 CALLDATASIZE CREATE2 DUP13 0xDE SDIV BLOCKHASH 0xDB 0x4C 0xC JUMP DUP5 DUP10 0x4E BLOBHASH 0xEB MUL RETURNDATASIZE 0xED DUP8 0xA7 ADD NOT PUSH8 0x5DC9857A328BFB57 PUSH5 0x736F6C6343 STOP ADDMOD BYTE STOP CALLER "
				},
				"gasEstimates": {
					"creation": {
						"codeDepositCost": "441600",
						"executionCost": "472",
						"totalCost": "442072"
					},
					"external": {
						"addPeople(string,uint256)": "infinite",
						"listOfPeople(uint256)": "infinite",
						"nameToFavoriteNumber(string)": "infinite",
						"retrieve()": "2410",
						"store(uint256)": "22536"
					}
				},
				"methodIdentifiers": {
					"addPeople(string,uint256)": "795fff1d",
					"listOfPeople(uint256)": "2ebce631",
					"nameToFavoriteNumber(string)": "8bab8dd5",
					"retrieve()": "2e64cec1",
					"store(uint256)": "6057361d"
				}
			},
			"storageLayout": {
				"storage": [
					{
						"astId": 3,
						"contract": "SimpleStorage.sol:SimpleStorage",
						"label": "myFavoriteNumber",
						"offset": 0,
						"slot": "0",
						"type": "t_uint256"
					},
					{
						"astId": 12,
						"contract": "SimpleStorage.sol:SimpleStorage",
						"label": "listOfPeople",
						"offset": 0,
						"slot": "1",
						"type": "t_array(t_struct(Person)8_storage)dyn_storage"
					},
					{
						"astId": 16,
						"contract": "SimpleStorage.sol:SimpleStorage",
						"label": "nameToFavoriteNumber",
						"offset": 0,
						"slot": "2",
						"type": "t_mapping(t_string_memory_ptr,t_bool)"
					}
				],
				"types": {
					"t_array(t_struct(Person)8_storage)dyn_storage": {
						"base": "t_struct(Person)8_storage",
						"encoding": "dynamic_array",
						"label": "struct SimpleStorage.Person[]",
						"numberOfBytes": "32"
					},
					"t_bool": {
						"encoding": "inplace",
						"label": "bool",
						"numberOfBytes": "1"
					},
					"t_mapping(t_string_memory_ptr,t_bool)": {
						"encoding": "mapping",
						"key": "t_string_memory_ptr",
						"label": "mapping(string => bool)",
						"numberOfBytes": "32",
						"value": "t_bool"
					},
					"t_string_memory_ptr": {
						"encoding": "bytes",
						"label": "string",
						"numberOfBytes": "32"
					},
					"t_string_storage": {
						"encoding": "bytes",
						"label": "string",
						"numberOfBytes": "32"
					},
					"t_struct(Person)8_storage": {
						"encoding": "inplace",
						"label": "struct SimpleStorage.Person",
						"members": [
							{
								"astId": 5,
								"contract": "SimpleStorage.sol:SimpleStorage",
								"label": "favoriteNumber",
								"offset": 0,
								"slot": "0",
								"type": "t_uint256"
							},
							{
								"astId": 7,
								"contract": "SimpleStorage.sol:SimpleStorage",
								"label": "name",
								"offset": 0,
								"slot": "1",
								"type": "t_string_storage"
							}
						],
						"numberOfBytes": "64"
					},
					"t_uint256": {
						"encoding": "inplace",
						"label": "uint256",
						"numberOfBytes": "32"
					}
				}
			},
			"userdoc": {
				"kind": "user",
				"methods": {},
				"version": 1
			}
		}
	}
}